:100000000C9463000C948B000C948B000C9454059E
:100010000C9454050C9454050C948B000C948B0098
:100020000C948B000C948B000C948B000C948B0024
:100030000C948B000C948B000C948B000C948B0014
:100040000C94B2040C948B000C9422050C94FC04C8
:100050000C948B000C948B000C948B000C948B00F4
:100060000C948B000C948B000000000024002700EF
:100070002A0000000008000201000003040700003D
:1000800000000000000000000000230026002900FE
:1000900000000000250028002B00040404040404D0
:1000A0000404020202020202030303030303010227
:1000B00004081020408001020408102001020408F6
:1000C0001020CE05860911241FBECFEFD8E0DEBF79
:1000D000CDBF11E0A0E0B1E0E6E5F9E102C0059096
:1000E0000D92A23EB107D9F722E0A2EEB1E001C025
:1000F0001D92A73FB207E1F710E0C2E6D0E004C0CE
:100100002197FE010E94930AC136D107C9F70E94C8
:100110008C060C949E0C0C940000833081F028F423
:10012000813099F08230A1F008958730A9F08830AD
:10013000B9F08430D1F4809180008F7D03C080912C
:1001400080008F7780938000089584B58F7702C0F8
:1001500084B58F7D84BD08958091B0008F7703C0F2
:100160008091B0008F7D8093B00008951F93CF934E
:10017000DF93282F30E0F901EE58FF4F8491F90109
:10018000E255FF4FD491F901E656FF4FC491CC23BD
:10019000C1F0162F81110E948D00EC2FF0E0EE0FC0
:1001A000FF1FE057FF4FA591B4919FB7F89411112D
:1001B00004C08C91D095D82302C0EC91DE2BDC9347
:1001C0009FBFDF91CF911F910895CF93DF9390E070
:1001D000FC01E255FF4F2491FC01E656FF4F84914C
:1001E000882361F190E0880F991FFC01E859FF4FC7
:1001F000C591D491FC01E057FF4FA591B4916111D5
:1002000009C09FB7F8948881209582238883EC9158
:100210002E230BC0623061F49FB7F8948881322F8F
:10022000309583238883EC912E2B2C939FBF06C09F
:100230008FB7F894E8812E2B28838FBFDF91CF9161
:1002400008951F93CF93DF93182FEB0161E00E9475
:10025000E500209711F460E004C0CF3FD10539F4E8
:1002600061E0812FDF91CF911F910C94B600E12FB7
:10027000F0E0EE58FF4FE491E330F9F048F4E1305C
:10028000B9F0E230A1F584B5806284BDC8BD34C048
:10029000E730E9F0E83019F1E43049F58091800069
:1002A000806280938000D0938B00C0938A0024C02A
:1002B00084B5806884BDC7BD1FC080918000806800
:1002C00080938000D0938900C093880015C08091EE
:1002D000B00080688093B000C093B3000DC08091DF
:1002E000B00080628093B000C093B40005C0C038F5
:1002F000D1050CF0B5CFAFCFDF91CF911F9108950D
:100300003FB7F89480912D0290912E02A0912F0278
:10031000B091300226B5A89B05C02F3F19F0019679
:10032000A11DB11D3FBFBA2FA92F982F8827820F7B
:10033000911DA11DB11DBC01CD0142E0660F771FCB
:10034000881F991F4A95D1F708958F929F92AF9277
:10035000BF92CF92DF92EF92FF926B017C010E94DD
:1003600080014B015C01C114D104E104F104F1F0FE
:100370000E948001DC01CB0188199909AA09BB09F7
:10038000883E9340A105B10570F321E0C21AD1085F
:10039000E108F10888EE880E83E0981EA11CB11CCC
:1003A000C114D104E104F10419F7DDCFFF90EF90FF
:1003B000DF90CF90BF90AF909F908F900895089559
:1003C000CF92DF92EF92FF920F931F93CF93DF9321
:1003D0006C017A018B01C0E0D0E0CE15DF0581F021
:1003E000D8016D918D01D601ED91FC910190F081C4
:1003F000E02DC6010995892B11F02196EECF7E01E3
:10040000C701DF91CF911F910F91FF90EF90DF9087
:10041000CF900895FC01538D448D252F30E0842F1B
:1004200090E0821B930B541710F0CF96089501971C
:100430000895FC01918D828D981761F0828DDF0106
:10044000A80FB11D5D968C91928D9F5F9F73928FC7
:1004500090E008958FEF9FEF0895FC01918D828DBC
:10046000981731F0828DE80FF11D858D90E0089589
:100470008FEF9FEF0895FC01918D228D892F90E0E1
:10048000805C9F4F821B91098F739927089581E3A8
:1004900092E00E943B0221E0892B09F420E0822FA8
:1004A0000895FC01848DDF01A80FB11DA35ABF4F31
:1004B0002C91848D90E001968F739927848FA68963
:1004C000B7892C93A089B1898C91837080648C93B7
:1004D000938D848D981306C00288F389E02D808166
:1004E0008F7D80830895EF92FF920F931F93CF9398
:1004F000DF93EC0181E0888F9B8D8C8D981305C074
:10050000E889F989808185FD26C0F62E0B8D10E0E3
:100510000F5F1F4F0F731127E02E8C8DE8120CC058
:100520000FB607FCFACFE889F989808185FFF5CFFE
:10053000CE010E945102F1CF8B8DFE01E80FF11D1B
:10054000E35AFF4FF0829FB7F8940B8FEA89FB893B
:10055000808180620AC09FB7F894EE89FF8960832A
:10056000E889F98980818370806480839FBF81E0FE
:1005700090E0DF91CF911F910F91FF90EF90089540
:10058000CF93DF93EC01888D8823C9F0EA89FB893A
:10059000808185FD05C0A889B9898C9186FD0FC031
:1005A0000FB607FCF5CF808185FFF2CFA889B98906
:1005B0008C9185FFEDCFCE010E945102E7CFDF91F4
:1005C000CF91089580E090E0892B29F00E944702A6
:1005D00081110C940000089520912402309125028D
:1005E0002817390771F490912202809123029817FD
:1005F00041F0E0912202F0E0EE51FE4F808190E068
:1006000008958FEF9FEF089508951F93CF93DF9381
:10061000DC015C968D919C915D97009739F421E007
:1006200030E013963C932E9312973BC05196ED9178
:10063000FC91529750962C915097322F30951FB7BE
:100640005E964C915E97742F727041FD6095F894A0
:100650004081772311F0422B01C043234083EC01FA
:100660002197F1F748E0508160FF02C0522B01C092
:1006700053235083EC012197F1F76695415099F788
:100680008081772319F08323808302C0282B208365
:100690001FBF5C968D919C915D970197F1F781E06A
:1006A00090E0DF91CF911F91089520912402309125
:1006B00025022817390771F4809123022091220224
:1006C00090E0805C9F4F821B910960E470E00E9483
:1006D000640A089580E090E008952091240230910A
:1006E000250228173907B9F490912202809123023C
:1006F000981789F0E0912202F0E0EE51FE4F8081E0
:100700002091220230E02F5F3F4F2F733327209339
:10071000220290E008958FEF9FEF089580E090E02F
:100720000895CF93DF93D62FC42F61E00E94B600C7
:1007300060E08D2F0E94B600609100017091010170
:100740008C2F0E94210165E070E080E090E0DF9155
:10075000CF910C94A501CF93DF93D62FC42F60E0E7
:100760000E94B60061E08D2F0E94B60060910001EA
:10077000709101018C2F0E94210165E070E080E002
:1007800090E0DF91CF910C94A5016115710579F08E
:10079000FB0101900020E9F73197AF01461B570B91
:1007A000DC01ED91FC910280F381E02D099480E061
:1007B00090E008958F929F92AF92BF92CF92DF9276
:1007C000EF92FF920F931F93CF93DF93CDB7DEB7D6
:1007D000A1970FB6F894DEBF0FBECDBF6C01990F85
:1007E000EE08FF08F7FE2DC06DE281E392E00E9463
:1007F00073028C0122273327A9012C193D094E09C8
:100800005F0919A2CE0181967C019AE0892E912C74
:10081000A12CB12CCA01B901A50194010E94330A8F
:10082000605DF70162937F01211531054105510596
:1008300089F7BF0181E392E00E94C503080F191FE9
:1008400020C0A701960119A28E010F5D1F4F8AE0FB
:10085000C82ED12CE12CF12CCA01B901A7019601B7
:100860000E94330A605DF80162938F012115310502
:100870004105510589F7BF0181E392E00E94C5035C
:100880008C016CE271E081E392E00E94C503800F6D
:10089000911FA1960FB6F894DEBF0FBECDBFDF91BA
:1008A000CF911F910F91FF90EF90DF90CF90BF906D
:1008B000AF909F908F9008950F931F93CF93DF93E6
:1008C000EC010E94C5038C016CE271E0CE010E9434
:1008D000C503800F911FDF91CF911F910F91089554
:1008E0000E94800CEF92FF920F931F93CF93DF93A0
:1008F000EC017B018A0188819981009729F02A8186
:100900003B8124173507F8F4B8016F5F7F4F0E94D1
:10091000BA0B009759F0998388831B830A832C8133
:100920003D81232B81F4FC0110820DC088819981C7
:10093000009711F00E94310B198218821D821C82CF
:100940001B821A8207C01D830C83B701888199819D
:100950000E94970CCE01DF91CF911F910F91FF90D4
:10096000EF9008951F920F920FB60F9211242F93BC
:100970003F938F939F93AF93BF9380912902909160
:100980002A02A0912B02B0912C023091280223E080
:10099000230F2D3720F40196A11DB11D05C026E8B7
:1009A000230F0296A11DB11D2093280280932902D6
:1009B00090932A02A0932B02B0932C0280912D02D7
:1009C00090912E02A0912F02B09130020196A11DAC
:1009D000B11D80932D0290932E02A0932F02B0930D
:1009E0003002BF91AF919F918F913F912F910F90C6
:1009F0000FBE0F901F9018951F920F920FB60F9277
:100A000011242F933F934F935F936F937F938F9313
:100A10009F93AF93BF93EF93FF9381E392E00E9484
:100A20005102FF91EF91BF91AF919F918F917F9173
:100A30006F915F914F913F912F910F900FBE0F904B
:100A40001F9018951F920F920FB60F9211242F939B
:100A50008F939F93EF93FF93E0914102F0914202B5
:100A60008081E0914702F091480282FD12C090819E
:100A700080914A028F5F8F7320914B02821751F051
:100A8000E0914A02F0E0EF5CFD4F958F80934A02BF
:100A900001C08081FF91EF919F918F912F910F90D5
:100AA0000FBE0F901F9018951F920F920FB60F92C6
:100AB00011242F933F934F935F936F937F938F9363
:100AC0009F93AF93BF93EF93FF93E0912402F09134
:100AD0002502309709F451C0968DA685B785858586
:100AE00091FF04C09C91892329F447C09C918923DC
:100AF00009F043C0A389B4899C9185898095892395
:100B00008C93868997890197F1F7608D718DA68501
:100B1000B785558538E020E0CB010197F1F7822FAA
:100B200090E095958795282F4C91452309F02068F2
:100B3000315091F7868D81FD20958091230290E0C0
:100B400001968F73992730912202381749F0A091AE
:100B50002302B0E0AE51BE4F2C938093230203C01A
:100B6000868D8160868F828D938D0197F1F7A389A1
:100B7000B4899C918589892B8C93FF91EF91BF91CA
:100B8000AF919F918F917F916F915F914F913F9125
:100B90002F910F900FBE0F901F9018951092340256
:100BA0001092330288EE93E0A0E0B0E0809335022B
:100BB00090933602A0933702B09338022CE031E0D4
:100BC000309332022093310225EC30E030933E0224
:100BD00020933D0224EC30E03093400220933F020A
:100BE00020EC30E0309342022093410221EC30E0CF
:100BF000309344022093430222EC30E030934602CB
:100C00002093450226EC30E03093480220934702BF
:100C100010924A0210924B0210924C0210924D0216
:100C20001092D7021092D6028093D8029093D902E4
:100C3000A093DA02B093DB028EE191E09093D502AB
:100C40008093D4021092EB021092EA021092ED020D
:100C50001092EC021092EF021092EE021092F1024A
:100C60001092F0026091F2026E7F6D7F6093F2024B
:100C70006695617081E068278BE00E94B60061E0B4
:100C80008BE00E94E500E9EBF0E0E491E093E40200
:100C9000E5EAF0E0E491F0E0EE0FFF1FE057FF4FD0
:100CA000859194919093E6028093E50260E08AE05A
:100CB0000E94E5008091F20281FD04C061E08AE0BB
:100CC0000E94B6008AE08093E002E8EBF0E0E49155
:100CD000E093E102E4EAF0E0E491F0E0EE0FFF1FC0
:100CE000EA57FF4F859194919093E3028093E2023B
:100CF0001092CF021092CE021092D1021092D00226
:100D00001092D3021092D20240E050E06EE271E005
:100D10008EEC92E00C947204CF93DF93CDB7DEB7E4
:100D200068970FB6F894DEBF0FBECDBF789484B538
:100D3000826084BD84B5816084BD85B5826085BDD7
:100D400085B5816085BD80916E00816080936E0065
:100D50001092810080918100826080938100809157
:100D60008100816080938100809180008160809308
:100D700080008091B10084608093B1008091B000C8
:100D800081608093B00080917A00846080937A00C3
:100D900080917A00826080937A0080917A008160ED
:100DA00080937A0080917A00806880937A00109214
:100DB000C100E0914102F091420282E08083E09123
:100DC0003D02F0913E021082E0913F02F09140021C
:100DD00083E3808310924902E0914502F09146023C
:100DE00086E08083E0914302F0914402808180613B
:100DF0008083E0914302F091440280818860808387
:100E0000E0914302F0914402808180688083E09108
:100E10004302F091440280818F7D80836FE271E014
:100E200081E392E00E945C041092EF021092EE02C5
:100E30001092ED021092EC021092EB021092EA0274
:100E40008DE991E09093F1028093F0029091E0029D
:100E5000963108F058C02DEB30E03093EB02209330
:100E6000EA022BE931E03093ED022093EC022CE210
:100E700031E03093EF022093EE0240916800983009
:100E800058F031E09E3008F430E021E0822F01C0BC
:100E9000880F3A95EAF701C084E0842B80936800BC
:100EA000983038F09E3040F0963148F42CE630E02F
:100EB00008C02DE630E005C02BE630E002C020E09F
:100EC00030E03093E8022093E702983030F481E07C
:100ED00001C0880F9A95EAF70EC0292F30E09E30A6
:100EE00018F42850310902C02E50310981E001C0A8
:100EF000880F2A95EAF78093E9028091F002909199
:100F0000F1020197F1F78091EE029091EF02892BA7
:100F100049F1E0912402F091250222E0E43DF2073C
:100F200009F1309739F0A389B4899C91858980951E
:100F300089238C938091F2028E7F8093F20210922B
:100F400023021092220284ED92E090932502809376
:100F50002402E091E702F091E80290818091E90299
:100F6000892B808361E471E084ED92E00E945C044F
:100F700061E086E00E94E50061E089E00E94E50012
:100F800061E088E00E94E50061E085E00E94E50004
:100F900061E084E00E94E50061E083E00E94E500FA
:100FA00060E08EE00E94E5006091260270912702C9
:100FB0008EE00E94210161E087E00E94E50061E08F
:100FC00089E00E94B60060E088E00E94B6004424F8
:100FD0004A9493E0592E612C712C2BE9C22ED12C0E
:100FE00034E6832E912CA12CB12CCE0101967C01EC
:100FF00022242A9443E0342EE9E7F0E08491E5EBE3
:10100000F0E00491E1EAF0E014911123A1F08111E4
:101010000E948D00E12FF0E0EE0FFF1FEA57FF4F17
:10102000A591B4918C91082391E080E009F490E0BF
:10103000092F182F02C000E010E0F0E4F0937C00CC
:1010400080917A00806480937A0080917A0086FD96
:10105000FCCFA091780080917900B0E0B82B28EC0B
:1010600030E00E94780AA30192010E94DD09BA01D2
:10107000A901495C5F4F6F4F7F4F4C3951050CF40C
:1010800041C0DA01AB59B10928EC30E00E94780A7E
:10109000A50194010E94DD09DA01C901C796A11DCD
:1010A000B11D909301018093000146E050E068E09B
:1010B00070E089E090E00130110569F40E94AB0313
:1010C00045E050E063E070E084E090E00E9491032E
:1010D0006AE471E00CC00E94AB0345E050E063E0BD
:1010E00070E084E090E00E94AB0363E671E081E38E
:1010F00092E00E94C50380910001909101010E943D
:10110000DA035CC04B395105B9F1D601A41BB50B0C
:1011100028EC30E00E94780AA50194010E94DD09C4
:10112000DA01C901C796A11DB11D909301018093F9
:10113000000146E050E068E070E089E090E00130B6
:10114000110569F40E94910345E050E063E070E00E
:1011500084E090E00E94AB0365E871E0C8CF0E9494
:10116000910345E050E063E070E084E090E00E948D
:1011700091036FE971E0BBCF61E089E00E94B600A6
:1011800061E088E00E94B6006AEF70E080E090E0E5
:101190000E94A50161E084E00E94B60061E083E066
:1011A0000E94B6006AEF70E080E090E00E94A50126
:1011B00061EC71E081E392E00E945C0484ED92E0D6
:1011C0000E946D031C8A1B8A1E8A1D8A188E1F8A24
:1011D0004AE0B7010E94A809F70101900020E9F751
:1011E0003197AF014E195F09B701CE0143960E94B6
:1011F00072048091CE029091CF02009741F06B89EA
:101200007C896115710509F06EC00E94310B8B89D4
:101210009C899093CF028093CE028D899E89909372
:10122000D1028093D0028F89988D9093D3028093BE
:10123000D2021C8A1B8A8B899C890E94310B809167
:10124000D2029091D302892B59F00091CE021091D5
:10125000CF0260ED71E0C8010E948E0C892B19F05D
:1012600060E070E02EC062ED71E0C8010E948E0C5B
:10127000892B71F480912602909127020A96813081
:1012800024E09207B4F0309227022092260215C083
:1012900064ED71E0C8010E948E0C892BA9F4809145
:1012A0002602909127020A978233910514F482E373
:1012B00090E090932702809326026091260270911D
:1012C00027028EE00E94210166ED71E081E392E049
:1012D0000E94C50380912602909127020E94DA03A2
:1012E0000E94E20289CE4091D0025091D1022F8912
:1012F000388D4217530708F488CF0E94970C8F89C6
:10130000988D9093D3028093D20295CF8091CE0294
:101310009091CF020E94310B8EE191E09093D50223
:101320008093D4028091240290912502845D9240A2
:1013300071F4E091E702F091E80290818091E90276
:1013400080958923808310922502109224020895AB
:10135000BB274A3031F4992322F4BDE29095819560
:101360009F4F0C94B409BB27FB015527AA27880F70
:10137000991FAA1FA41710F0A41B83955051B9F709
:10138000A05DAA3308F0A95DA193009779F7B11188
:10139000B1931192CB010C94CD09DC01FC01672FB4
:1013A00071917723E1F7329704C07C916D9370833C
:1013B0006291AE17BF07C8F30895052E97FB1EF480
:1013C00000940E94F40957FD07D00E94330A07FCDD
:1013D00003D04EF40C94F409509540953095219526
:1013E0003F4F4F4F5F4F0895909580957095619551
:1013F0007F4F8F4F9F4F08952F923F924F925F9252
:101400006F927F928F929F92AF92BF92CF92DF9214
:10141000EF92FF920F931F93CF93DF93CDB7DEB779
:10142000CA1BDB0B0FB6F894DEBF0FBECDBF09940D
:101430002A88398848885F846E847D848C849B8464
:10144000AA84B984C884DF80EE80FD800C811B8172
:10145000AA81B981CE0FD11D0FB6F894DEBF0FBEA1
:10146000CDBFED010895A1E21A2EAA1BBB1BFD0101
:101470000DC0AA1FBB1FEE1FFF1FA217B307E40773
:10148000F50720F0A21BB30BE40BF50B661F771FCB
:10149000881F991F1A9469F76095709580959095AB
:1014A0009B01AC01BD01CF010895A29FB001B39F84
:1014B000C001A39F700D811D1124911DB29F700D5D
:1014C000811D1124911D089597FB072E16F4009499
:1014D00007D077FD09D00E947F0A07FC05D03EF4B3
:1014E000909581959F4F0895709561957F4F0895D0
:1014F0000E94550AB7FF0895821B930B0895AA1BFB
:10150000BB1B51E107C0AA1FBB1FA617B70710F0EE
:10151000A61BB70B881F991F5A95A9F78095909520
:10152000BC01CD010895EE0FFF1F0590F491E02D51
:1015300009940F931F93CF93DF938230910510F49A
:1015400082E090E0E091F502F091F60220E030E0D8
:10155000A0E0B0E0309719F1408151810281138100
:1015600048175907C8F08417950769F4109731F0A8
:1015700012960C93129713961C9327C00093F502B2
:101580001093F60222C02115310519F042175307B6
:1015900018F49A01BD01EF01DF01F801DBCF21153D
:1015A0003105F9F0281B390B2430310580F48A818C
:1015B0009B816115710521F0FB019383828304C037
:1015C0009093F6028093F502FE01329644C0FE012C
:1015D000E20FF31F819391932250310939832883BD
:1015E0003AC02091F3023091F402232B41F4209170
:1015F0000401309105013093F4022093F30220910D
:101600000201309103012115310541F42DB73EB798
:101610004091060150910701241B350BE091F30224
:10162000F091F402E217F307A0F42E1B3F0B2817EA
:10163000390778F0AC014E5F5F4F2417350748F04B
:101640004E0F5F1F5093F4024093F30281939193E6
:1016500002C0E0E0F0E0CF01DF91CF911F910F9148
:101660000895CF93DF93009709F481C0FC0132976E
:1016700013821282A091F502B091F602109781F4C4
:1016800020813181820F931F2091F3023091F40267
:101690002817390751F5F093F402E093F30267C07D
:1016A000ED0120E030E0CE17DF0740F44A815B8196
:1016B0009E0141155105F1F0EA01F5CFD383C283B4
:1016C00040815181840F951FC817D90759F488812B
:1016D0009981840F951F0296918380838A819B81D3
:1016E000938382832115310529F4F093F602E09368
:1016F000F5023DC0E901FB83EA8349915991C40F8A
:10170000D51FEC17FD0761F480819181840F951F2F
:101710000296E90199838883828193819B838A83DE
:10172000E0E0F0E012968D919C911397009719F0EC
:10173000FD01DC01F7CF8D919C9111979D012E5FEA
:101740003F4F820F931F2091F3023091F40228172C
:10175000390769F4309729F41092F6021092F502D5
:1017600002C013821282B093F402A093F302DF91BD
:10177000CF910895A0E0B0E0E0ECFBE00C94000A0B
:10178000EC01009721F4CB010E94990AB4C0FC013E
:10179000E60FF71F9C0122503109E217F30708F406
:1017A000A8C0D9010D911C91119706171707B0F029
:1017B0000530110508F49BC0C801049786179707E8
:1017C00008F495C002501109061B170B01931193E1
:1017D0006D937C93CF010E94310B89C05B01A01AED
:1017E000B10A4C01800E911EA091F502B091F60253
:1017F000612C712CE12CF12C109709F446C08D91CD
:101800009C911197A815B905B1F56C0142E0C40E81
:10181000D11CCA14DB0478F14C018A189B086401BE
:1018200042E0C40ED11C1296BC9012971396AC9154
:10183000B5E0CB16D10440F0B282A38391828082BE
:10184000D9016D937C9309C00E5F1F4F800F911FCC
:10185000F90191838083EB2DFA2FE114F10431F02B
:10186000D7011396FC93EE93129741C0F093F602C2
:10187000E093F5023CC06816790608F43C017D014E
:1018800012960D90BC91A02DB7CF8091F30290914C
:10189000F40288169906E1F466167706C8F480917A
:1018A000020190910301009741F48DB79EB74091DA
:1018B000060150910701841B950BE817F907C8F43E
:1018C000F093F402E093F302F901718360830FC097
:1018D000CB010E94990A7C01009759F0A801BE0132
:1018E0000E94850CCE010E94310BC70104C0CE01BD
:1018F00002C080E090E0CDB7DEB7EEE00C941C0AA9
:1019000081E090E0F8940C949E0CFB01DC0102C095
:1019100001900D9241505040D8F70895FB01DC0131
:101920008D91019080190110D9F3990B0895FB0155
:10193000DC0101900D920020E1F7089510E0C2E66D
:10194000D0E004C0FE010E94930A2196C336D1075D
:06195000C9F7F894FFCF77
:1019560032000000F7028000000000007302E00180
:101966000A02C0023B0219022D0200000000050314
:10197600E0018E03040355036D03EC020D0A0042D9
:101986006C7565746F6F74682073656E64203A2099
:1019960000526563656976657200322073656E7301
:1019A6003A206C6566742C2076656C6F6369747971
:1019B6003A20003220646972656374696F6E3A205A
:1019C600706F7369746976652C2076656C6F6369D0
:1019D60074793A2000322073656E733A2072696713
:1019E60068742C2076656C6F636974793A200032CE
:1019F60020646972656374696F6E3A204E6567612B
:101A0600746976652C2076656C6F636974793A2003
:101A1600004D6F746F722073746F70706564200070
:101A26003500380032000A0A0A56616C7565203A9C
:021A360020008E
:00000001FF
